{"abi":[{"type":"constructor","inputs":[{"name":"entranceFee","type":"uint256","internalType":"uint256"},{"name":"interval","type":"uint256","internalType":"uint256"},{"name":"_vrfCoordinator","type":"address","internalType":"address"},{"name":"gasLane","type":"bytes32","internalType":"bytes32"},{"name":"subscriptionId","type":"uint256","internalType":"uint256"},{"name":"callbackGasLimit","type":"uint32","internalType":"uint32"}],"stateMutability":"nonpayable"},{"type":"function","name":"acceptOwnership","inputs":[],"outputs":[],"stateMutability":"nonpayable"},{"type":"function","name":"checkUpkeep","inputs":[{"name":"","type":"bytes","internalType":"bytes"}],"outputs":[{"name":"upkeepNeeded","type":"bool","internalType":"bool"},{"name":"","type":"bytes","internalType":"bytes"}],"stateMutability":"view"},{"type":"function","name":"enterRaffle","inputs":[],"outputs":[],"stateMutability":"payable"},{"type":"function","name":"getEntranceFee","inputs":[],"outputs":[{"name":"","type":"uint256","internalType":"uint256"}],"stateMutability":"view"},{"type":"function","name":"getPlayer","inputs":[{"name":"indexOfPlayer","type":"uint256","internalType":"uint256"}],"outputs":[{"name":"","type":"address","internalType":"address"}],"stateMutability":"view"},{"type":"function","name":"getRaffleState","inputs":[],"outputs":[{"name":"","type":"uint8","internalType":"enum Raffle.RaffleState"}],"stateMutability":"view"},{"type":"function","name":"owner","inputs":[],"outputs":[{"name":"","type":"address","internalType":"address"}],"stateMutability":"view"},{"type":"function","name":"performUpkeep","inputs":[{"name":"","type":"bytes","internalType":"bytes"}],"outputs":[],"stateMutability":"nonpayable"},{"type":"function","name":"rawFulfillRandomWords","inputs":[{"name":"requestId","type":"uint256","internalType":"uint256"},{"name":"randomWords","type":"uint256[]","internalType":"uint256[]"}],"outputs":[],"stateMutability":"nonpayable"},{"type":"function","name":"s_vrfCoordinator","inputs":[],"outputs":[{"name":"","type":"address","internalType":"contract IVRFCoordinatorV2Plus"}],"stateMutability":"view"},{"type":"function","name":"setCoordinator","inputs":[{"name":"_vrfCoordinator","type":"address","internalType":"address"}],"outputs":[],"stateMutability":"nonpayable"},{"type":"function","name":"transferOwnership","inputs":[{"name":"to","type":"address","internalType":"address"}],"outputs":[],"stateMutability":"nonpayable"},{"type":"event","name":"CoordinatorSet","inputs":[{"name":"vrfCoordinator","type":"address","indexed":false,"internalType":"address"}],"anonymous":false},{"type":"event","name":"OwnershipTransferRequested","inputs":[{"name":"from","type":"address","indexed":true,"internalType":"address"},{"name":"to","type":"address","indexed":true,"internalType":"address"}],"anonymous":false},{"type":"event","name":"OwnershipTransferred","inputs":[{"name":"from","type":"address","indexed":true,"internalType":"address"},{"name":"to","type":"address","indexed":true,"internalType":"address"}],"anonymous":false},{"type":"event","name":"RaffleEntered","inputs":[{"name":"player","type":"address","indexed":true,"internalType":"address"}],"anonymous":false},{"type":"event","name":"WinnerPicked","inputs":[{"name":"winner","type":"address","indexed":true,"internalType":"address"}],"anonymous":false},{"type":"error","name":"OnlyCoordinatorCanFulfill","inputs":[{"name":"have","type":"address","internalType":"address"},{"name":"want","type":"address","internalType":"address"}]},{"type":"error","name":"OnlyOwnerOrCoordinator","inputs":[{"name":"have","type":"address","internalType":"address"},{"name":"owner","type":"address","internalType":"address"},{"name":"coordinator","type":"address","internalType":"address"}]},{"type":"error","name":"Raffle__NotOpen","inputs":[]},{"type":"error","name":"Raffle__SendMoreToEnterRaffle","inputs":[]},{"type":"error","name":"Raffle__TransferFailed","inputs":[]},{"type":"error","name":"Raffle__UpkeepNotNeeded","inputs":[{"name":"balance","type":"uint256","internalType":"uint256"},{"name":"numPlayers","type":"uint256","internalType":"uint256"},{"name":"raffleState","type":"uint256","internalType":"uint256"}]},{"type":"error","name":"ZeroAddress","inputs":[]}],"bytecode":{"object":"0x61012060405234801561001157600080fd5b5060405161113d38038061113d833981016040819052610030916101dd565b8333806000816100875760405162461bcd60e51b815260206004820152601860248201527f43616e6e6f7420736574206f776e657220746f207a65726f000000000000000060448201526064015b60405180910390fd5b600080546001600160a01b0319166001600160a01b03848116919091179091558116156100b7576100b781610134565b5050506001600160a01b0381166100e15760405163d92e233d60e01b815260040160405180910390fd5b600280546001600160a01b0319166001600160a01b039290921691909117905560c09590955260a09390935260e052506101005263ffffffff16608052426004556005805460ff60a01b19169055610253565b336001600160a01b0382160361018c5760405162461bcd60e51b815260206004820152601760248201527f43616e6e6f74207472616e7366657220746f2073656c66000000000000000000604482015260640161007e565b600180546001600160a01b0319166001600160a01b0383811691821790925560008054604051929316917fed8889f560326eb138920d842192f0eb3dd22b4f139c87a2c57538e05bae12789190a350565b60008060008060008060c087890312156101f657600080fd5b86516020880151604089015191975095506001600160a01b038116811461021c57600080fd5b80945050606087015192506080870151915060a087015163ffffffff8116811461024557600080fd5b809150509295509295509295565b60805160a05160c05160e05161010051610ea061029d60003960006104460152600061042301526000818160be01526102a901526000610548015260006104760152610ea06000f3fe6080604052600436106100a75760003560e01c806379ba50971161006457806379ba50971461018b5780638da5cb5b146101a05780638ea98117146101d25780639eccacf6146101f2578063e55ae4e814610212578063f2fde38b1461023257600080fd5b806309bc33a7146100ac578063115cbaf5146100ec5780631fe543e3146101135780632cfcc539146101355780634585e33b1461013d5780636e04ff0d1461015d575b600080fd5b3480156100b857600080fd5b506040517f000000000000000000000000000000000000000000000000000000000000000081526020015b60405180910390f35b3480156100f857600080fd5b50600554600160a01b900460ff166040516100e39190610b03565b34801561011f57600080fd5b5061013361012e366004610b2b565b610252565b005b6101336102a7565b34801561014957600080fd5b50610133610158366004610baa565b610394565b34801561016957600080fd5b5061017d610178366004610c32565b610540565b6040516100e3929190610d29565b34801561019757600080fd5b506101336105e0565b3480156101ac57600080fd5b506000546001600160a01b03165b6040516001600160a01b0390911681526020016100e3565b3480156101de57600080fd5b506101336101ed366004610d4c565b61068a565b3480156101fe57600080fd5b506002546101ba906001600160a01b031681565b34801561021e57600080fd5b506101ba61022d366004610d7c565b61077c565b34801561023e57600080fd5b5061013361024d366004610d4c565b6107ac565b6002546001600160a01b031633146102975760025460405163073e64fd60e21b81523360048201526001600160a01b0390911660248201526044015b60405180910390fd5b6102a28383836107c0565b505050565b7f00000000000000000000000000000000000000000000000000000000000000003410156102e85760405163181c600560e11b815260040160405180910390fd5b6000600554600160a01b900460ff16600181111561030857610308610aed565b146103265760405163050955c760e21b815260040160405180910390fd5b6003805460018101825560009182527fc2575a0e9e593c00f959f8c92f12db2869c3395a3b0502d05e2516446f71f85b0180546001600160a01b0319163390811790915560405190917f634f3211e3a4e43fee5a21ad9f87ca153b300fc78b1c557a2057dbe9c63bcb4791a2565b60006103ae60405180602001604052806000815250610540565b5090508061040457600354600554479190600160a01b900460ff1660018111156103da576103da610aed565b604051632c2193d560e11b815260048101939093526024830191909152604482015260640161028e565b6005805460ff60a01b1916600160a01b1790556040805160c0810182527f000000000000000000000000000000000000000000000000000000000000000081527f00000000000000000000000000000000000000000000000000000000000000006020808301919091526003828401527f000000000000000000000000000000000000000000000000000000000000000063ffffffff16606083015260016080830152825190810190925260008083529160a08201906104c390610904565b9052600254604051634d8e1c2f60e11b81529192506001600160a01b031690639b1c385e906104f6908490600401610d95565b6020604051808303816000875af1158015610515573d6000803e3d6000fd5b505050506040513d601f19601f820116820180604052508101906105399190610df2565b5050505050565b6000606060007f0000000000000000000000000000000000000000000000000000000000000000600454426105759190610e0b565b10159050600080600554600160a01b900460ff16600181111561059a5761059a610aed565b600354911491504715159015158380156105b15750825b80156105ba5750815b80156105c35750805b604080516020810190915260008152909890975095505050505050565b6001546001600160a01b031633146106335760405162461bcd60e51b815260206004820152601660248201527526bab9ba10313290383937b837b9b2b21037bbb732b960511b604482015260640161028e565b60008054336001600160a01b0319808316821784556001805490911690556040516001600160a01b0390921692909183917f8be0079c531659141344cd1fd0a4f28419497f9722a3daafe3b4186f6b6457e091a350565b6000546001600160a01b031633148015906106b057506002546001600160a01b03163314155b1561070157336106c86000546001600160a01b031690565b60025460405163061db9c160e01b81526001600160a01b039384166004820152918316602483015291909116604482015260640161028e565b6001600160a01b0381166107285760405163d92e233d60e01b815260040160405180910390fd5b600280546001600160a01b0319166001600160a01b0383169081179091556040519081527fd1a6a14209a385a964d036e404cb5cfb71f4000cdb03c9366292430787261be69060200160405180910390a150565b60006003828154811061079157610791610e32565b6000918252602090912001546001600160a01b031692915050565b6107b4610975565b6107bd816109ca565b50565b600354600090838383816107d6576107d6610e32565b905060200201356107e79190610e48565b90506000600382815481106107fe576107fe610e32565b600091825260208083209190910154600580546001600160a81b0319166001600160a01b0390921691821790556040805193845291830191829052915191925061084b9160039190610a73565b50426004556005546040516001600160a01b03909116907f5b690ec4a06fe979403046eaeea5b3ce38524683c3001f662c8b5a829632f7df90600090a26000816001600160a01b03164760405160006040518083038185875af1925050503d80600081146108d5576040519150601f19603f3d011682016040523d82523d6000602084013e6108da565b606091505b50509050806108fc5760405163a1d04b3960e01b815260040160405180910390fd5b505050505050565b60607f92fd13387c7fe7befbc38d303d6468778fb9731bc4583f17d92989c6fcfdeaaa8260405160240161093d91511515815260200190565b60408051601f198184030181529190526020810180516001600160e01b03166001600160e01b03199093169290921790915292915050565b6000546001600160a01b031633146109c85760405162461bcd60e51b815260206004820152601660248201527527b7363c9031b0b63630b1363290313c9037bbb732b960511b604482015260640161028e565b565b336001600160a01b03821603610a225760405162461bcd60e51b815260206004820152601760248201527f43616e6e6f74207472616e7366657220746f2073656c66000000000000000000604482015260640161028e565b600180546001600160a01b0319166001600160a01b0383811691821790925560008054604051929316917fed8889f560326eb138920d842192f0eb3dd22b4f139c87a2c57538e05bae12789190a350565b828054828255906000526020600020908101928215610ac8579160200282015b82811115610ac857825182546001600160a01b0319166001600160a01b03909116178255602090920191600190910190610a93565b50610ad4929150610ad8565b5090565b5b80821115610ad45760008155600101610ad9565b634e487b7160e01b600052602160045260246000fd5b6020810160028310610b2557634e487b7160e01b600052602160045260246000fd5b91905290565b600080600060408486031215610b4057600080fd5b83359250602084013567ffffffffffffffff80821115610b5f57600080fd5b818601915086601f830112610b7357600080fd5b813581811115610b8257600080fd5b8760208260051b8501011115610b9757600080fd5b6020830194508093505050509250925092565b60008060208385031215610bbd57600080fd5b823567ffffffffffffffff80821115610bd557600080fd5b818501915085601f830112610be957600080fd5b813581811115610bf857600080fd5b866020828501011115610c0a57600080fd5b60209290920196919550909350505050565b634e487b7160e01b600052604160045260246000fd5b600060208284031215610c4457600080fd5b813567ffffffffffffffff80821115610c5c57600080fd5b818401915084601f830112610c7057600080fd5b813581811115610c8257610c82610c1c565b604051601f8201601f19908116603f01168101908382118183101715610caa57610caa610c1c565b81604052828152876020848701011115610cc357600080fd5b826020860160208301376000928101602001929092525095945050505050565b6000815180845260005b81811015610d0957602081850181015186830182015201610ced565b506000602082860101526020601f19601f83011685010191505092915050565b8215158152604060208201526000610d446040830184610ce3565b949350505050565b600060208284031215610d5e57600080fd5b81356001600160a01b0381168114610d7557600080fd5b9392505050565b600060208284031215610d8e57600080fd5b5035919050565b60208152815160208201526020820151604082015261ffff60408301511660608201526000606083015163ffffffff80821660808501528060808601511660a0850152505060a083015160c080840152610d4460e0840182610ce3565b600060208284031215610e0457600080fd5b5051919050565b81810381811115610e2c57634e487b7160e01b600052601160045260246000fd5b92915050565b634e487b7160e01b600052603260045260246000fd5b600082610e6557634e487b7160e01b600052601260045260246000fd5b50069056fea2646970667358221220549ebdbf7bc32c16bc841ca874f12abc72a7bca9ec030a780dd0b4e01a3403fe64736f6c63430008130033","linkReferences":{}},"methodIdentifiers":{"acceptOwnership()":"79ba5097","checkUpkeep(bytes)":"6e04ff0d","enterRaffle()":"2cfcc539","getEntranceFee()":"09bc33a7","getPlayer(uint256)":"e55ae4e8","getRaffleState()":"115cbaf5","owner()":"8da5cb5b","performUpkeep(bytes)":"4585e33b","rawFulfillRandomWords(uint256,uint256[])":"1fe543e3","s_vrfCoordinator()":"9eccacf6","setCoordinator(address)":"8ea98117","transferOwnership(address)":"f2fde38b"},"id":40}