{"abi":[{"type":"constructor","inputs":[{"name":"entranceFee","type":"uint256","internalType":"uint256"},{"name":"interval","type":"uint256","internalType":"uint256"},{"name":"_vrfCoordinator","type":"address","internalType":"address"},{"name":"gasLane","type":"bytes32","internalType":"bytes32"},{"name":"subscriptionId","type":"uint256","internalType":"uint256"},{"name":"callbackGasLimit","type":"uint32","internalType":"uint32"}],"stateMutability":"nonpayable"},{"type":"function","name":"acceptOwnership","inputs":[],"outputs":[],"stateMutability":"nonpayable"},{"type":"function","name":"checkUpkeep","inputs":[{"name":"","type":"bytes","internalType":"bytes"}],"outputs":[{"name":"upkeepNeeded","type":"bool","internalType":"bool"},{"name":"","type":"bytes","internalType":"bytes"}],"stateMutability":"view"},{"type":"function","name":"enterRaffle","inputs":[],"outputs":[],"stateMutability":"payable"},{"type":"function","name":"getEntranceFee","inputs":[],"outputs":[{"name":"","type":"uint256","internalType":"uint256"}],"stateMutability":"view"},{"type":"function","name":"getPlayer","inputs":[{"name":"indexOfPlayer","type":"uint256","internalType":"uint256"}],"outputs":[{"name":"","type":"address","internalType":"address"}],"stateMutability":"view"},{"type":"function","name":"getRaffleState","inputs":[],"outputs":[{"name":"","type":"uint8","internalType":"enum Raffle.RaffleState"}],"stateMutability":"view"},{"type":"function","name":"owner","inputs":[],"outputs":[{"name":"","type":"address","internalType":"address"}],"stateMutability":"view"},{"type":"function","name":"performUpkeep","inputs":[{"name":"","type":"bytes","internalType":"bytes"}],"outputs":[],"stateMutability":"nonpayable"},{"type":"function","name":"rawFulfillRandomWords","inputs":[{"name":"requestId","type":"uint256","internalType":"uint256"},{"name":"randomWords","type":"uint256[]","internalType":"uint256[]"}],"outputs":[],"stateMutability":"nonpayable"},{"type":"function","name":"s_vrfCoordinator","inputs":[],"outputs":[{"name":"","type":"address","internalType":"contract IVRFCoordinatorV2Plus"}],"stateMutability":"view"},{"type":"function","name":"setCoordinator","inputs":[{"name":"_vrfCoordinator","type":"address","internalType":"address"}],"outputs":[],"stateMutability":"nonpayable"},{"type":"function","name":"transferOwnership","inputs":[{"name":"to","type":"address","internalType":"address"}],"outputs":[],"stateMutability":"nonpayable"},{"type":"event","name":"CoordinatorSet","inputs":[{"name":"vrfCoordinator","type":"address","indexed":false,"internalType":"address"}],"anonymous":false},{"type":"event","name":"OwnershipTransferRequested","inputs":[{"name":"from","type":"address","indexed":true,"internalType":"address"},{"name":"to","type":"address","indexed":true,"internalType":"address"}],"anonymous":false},{"type":"event","name":"OwnershipTransferred","inputs":[{"name":"from","type":"address","indexed":true,"internalType":"address"},{"name":"to","type":"address","indexed":true,"internalType":"address"}],"anonymous":false},{"type":"event","name":"RaffleEntered","inputs":[{"name":"player","type":"address","indexed":true,"internalType":"address"}],"anonymous":false},{"type":"event","name":"WinnerPicked","inputs":[{"name":"winner","type":"address","indexed":true,"internalType":"address"}],"anonymous":false},{"type":"error","name":"OnlyCoordinatorCanFulfill","inputs":[{"name":"have","type":"address","internalType":"address"},{"name":"want","type":"address","internalType":"address"}]},{"type":"error","name":"OnlyOwnerOrCoordinator","inputs":[{"name":"have","type":"address","internalType":"address"},{"name":"owner","type":"address","internalType":"address"},{"name":"coordinator","type":"address","internalType":"address"}]},{"type":"error","name":"Raffle__NotOpen","inputs":[]},{"type":"error","name":"Raffle__SendMoreToEnterRaffle","inputs":[]},{"type":"error","name":"Raffle__TransferFailed","inputs":[]},{"type":"error","name":"Raffle__UpkeepNotNeeded","inputs":[{"name":"balance","type":"uint256","internalType":"uint256"},{"name":"numPlayers","type":"uint256","internalType":"uint256"},{"name":"raffleState","type":"uint256","internalType":"uint256"}]},{"type":"error","name":"ZeroAddress","inputs":[]}],"bytecode":{"object":"0x6101206040523480156200001257600080fd5b5060405162002360380380620023608339818101604052810190620000389190620004a7565b83338060008073ffffffffffffffffffffffffffffffffffffffff168273ffffffffffffffffffffffffffffffffffffffff1603620000ae576040517f08c379a0000000000000000000000000000000000000000000000000000000008152600401620000a590620005a4565b60405180910390fd5b816000806101000a81548173ffffffffffffffffffffffffffffffffffffffff021916908373ffffffffffffffffffffffffffffffffffffffff160217905550600073ffffffffffffffffffffffffffffffffffffffff168173ffffffffffffffffffffffffffffffffffffffff1614620001355762000134816200025760201b60201c565b5b505050600073ffffffffffffffffffffffffffffffffffffffff168173ffffffffffffffffffffffffffffffffffffffff16036200019f576040517fd92e233d00000000000000000000000000000000000000000000000000000000815260040160405180910390fd5b80600260006101000a81548173ffffffffffffffffffffffffffffffffffffffff021916908373ffffffffffffffffffffffffffffffffffffffff160217905550508560c081815250508460a081815250508260e081815250508161010081815250508063ffffffff1660808163ffffffff1681525050426004819055506000600560146101000a81548160ff02191690836001811115620002465762000245620005c6565b5b021790555050505050505062000667565b3373ffffffffffffffffffffffffffffffffffffffff168173ffffffffffffffffffffffffffffffffffffffff1603620002c8576040517f08c379a0000000000000000000000000000000000000000000000000000000008152600401620002bf9062000645565b60405180910390fd5b80600160006101000a81548173ffffffffffffffffffffffffffffffffffffffff021916908373ffffffffffffffffffffffffffffffffffffffff1602179055508073ffffffffffffffffffffffffffffffffffffffff1660008054906101000a900473ffffffffffffffffffffffffffffffffffffffff1673ffffffffffffffffffffffffffffffffffffffff167fed8889f560326eb138920d842192f0eb3dd22b4f139c87a2c57538e05bae127860405160405180910390a350565b600080fd5b6000819050919050565b620003a0816200038b565b8114620003ac57600080fd5b50565b600081519050620003c08162000395565b92915050565b600073ffffffffffffffffffffffffffffffffffffffff82169050919050565b6000620003f382620003c6565b9050919050565b6200040581620003e6565b81146200041157600080fd5b50565b6000815190506200042581620003fa565b92915050565b6000819050919050565b62000440816200042b565b81146200044c57600080fd5b50565b600081519050620004608162000435565b92915050565b600063ffffffff82169050919050565b620004818162000466565b81146200048d57600080fd5b50565b600081519050620004a18162000476565b92915050565b60008060008060008060c08789031215620004c757620004c662000386565b5b6000620004d789828a01620003af565b9650506020620004ea89828a01620003af565b9550506040620004fd89828a0162000414565b94505060606200051089828a016200044f565b93505060806200052389828a01620003af565b92505060a06200053689828a0162000490565b9150509295509295509295565b600082825260208201905092915050565b7f43616e6e6f7420736574206f776e657220746f207a65726f0000000000000000600082015250565b60006200058c60188362000543565b9150620005998262000554565b602082019050919050565b60006020820190508181036000830152620005bf816200057d565b9050919050565b7f4e487b7100000000000000000000000000000000000000000000000000000000600052602160045260246000fd5b7f43616e6e6f74207472616e7366657220746f2073656c66000000000000000000600082015250565b60006200062d60178362000543565b91506200063a82620005f5565b602082019050919050565b6000602082019050818103600083015262000660816200061e565b9050919050565b60805160a05160c05160e05161010051611cad620006b360003960006105f5015260006105cf01526000818161029c015261039f01526000610729015260006106260152611cad6000f3fe6080604052600436106100a75760003560e01c806379ba50971161006457806379ba50971461019c5780638da5cb5b146101b35780638ea98117146101de5780639eccacf614610207578063e55ae4e814610232578063f2fde38b1461026f576100a7565b806309bc33a7146100ac578063115cbaf5146100d75780631fe543e3146101025780632cfcc5391461012b5780634585e33b146101355780636e04ff0d1461015e575b600080fd5b3480156100b857600080fd5b506100c1610298565b6040516100ce919061116d565b60405180910390f35b3480156100e357600080fd5b506100ec6102c0565b6040516100f991906111ff565b60405180910390f35b34801561010e57600080fd5b50610129600480360381019061012491906112bf565b6102d7565b005b61013361039d565b005b34801561014157600080fd5b5061015c60048036038101906101579190611375565b61050c565b005b34801561016a57600080fd5b5061018560048036038101906101809190611503565b610721565b6040516101939291906115e6565b60405180910390f35b3480156101a857600080fd5b506101b16107e3565b005b3480156101bf57600080fd5b506101c8610978565b6040516101d59190611657565b60405180910390f35b3480156101ea57600080fd5b506102056004803603810190610200919061169e565b6109a1565b005b34801561021357600080fd5b5061021c610b82565b604051610229919061172a565b60405180910390f35b34801561023e57600080fd5b5061025960048036038101906102549190611745565b610ba8565b6040516102669190611657565b60405180910390f35b34801561027b57600080fd5b506102966004803603810190610291919061169e565b610bf0565b005b60007f0000000000000000000000000000000000000000000000000000000000000000905090565b6000600560149054906101000a900460ff16905090565b600260009054906101000a900473ffffffffffffffffffffffffffffffffffffffff1673ffffffffffffffffffffffffffffffffffffffff163373ffffffffffffffffffffffffffffffffffffffff161461038d5733600260009054906101000a900473ffffffffffffffffffffffffffffffffffffffff166040517f1cf993f4000000000000000000000000000000000000000000000000000000008152600401610384929190611772565b60405180910390fd5b610398838383610c04565b505050565b7f00000000000000000000000000000000000000000000000000000000000000003410156103f7576040517f3038c00a00000000000000000000000000000000000000000000000000000000815260040160405180910390fd5b6000600181111561040b5761040a611188565b5b600560149054906101000a900460ff16600181111561042d5761042c611188565b5b14610464576040517f1425571c00000000000000000000000000000000000000000000000000000000815260040160405180910390fd5b6003339080600181540180825580915050600190039060005260206000200160009091909190916101000a81548173ffffffffffffffffffffffffffffffffffffffff021916908373ffffffffffffffffffffffffffffffffffffffff1602179055503373ffffffffffffffffffffffffffffffffffffffff167f634f3211e3a4e43fee5a21ad9f87ca153b300fc78b1c557a2057dbe9c63bcb4760405160405180910390a2565b600061052660405180602001604052806000815250610721565b509050806105955747600380549050600560149054906101000a900460ff16600181111561055757610556611188565b5b6040517f584327aa00000000000000000000000000000000000000000000000000000000815260040161058c9392919061179b565b60405180910390fd5b6001600560146101000a81548160ff021916908360018111156105bb576105ba611188565b5b021790555060006040518060c001604052807f000000000000000000000000000000000000000000000000000000000000000081526020017f00000000000000000000000000000000000000000000000000000000000000008152602001600361ffff1681526020017f000000000000000000000000000000000000000000000000000000000000000063ffffffff168152602001600163ffffffff168152602001610677604051806020016040528060001515815250610e59565b8152509050600260009054906101000a900473ffffffffffffffffffffffffffffffffffffffff1673ffffffffffffffffffffffffffffffffffffffff16639b1c385e826040518263ffffffff1660e01b81526004016106d79190611909565b6020604051808303816000875af11580156106f6573d6000803e3d6000fd5b505050506040513d601f19601f8201168201806040525081019061071a9190611940565b5050505050565b6000606060007f000000000000000000000000000000000000000000000000000000000000000060045442610756919061199c565b10159050600080600181111561076f5761076e611188565b5b600560149054906101000a900460ff16600181111561079157610790611188565b5b149050600080471190506000806003805490501190508380156107b15750825b80156107ba5750815b80156107c35750805b955085604051806020016040528060008152509550955050505050915091565b600160009054906101000a900473ffffffffffffffffffffffffffffffffffffffff1673ffffffffffffffffffffffffffffffffffffffff163373ffffffffffffffffffffffffffffffffffffffff1614610873576040517f08c379a000000000000000000000000000000000000000000000000000000000815260040161086a90611a2d565b60405180910390fd5b60008060009054906101000a900473ffffffffffffffffffffffffffffffffffffffff169050336000806101000a81548173ffffffffffffffffffffffffffffffffffffffff021916908373ffffffffffffffffffffffffffffffffffffffff1602179055506000600160006101000a81548173ffffffffffffffffffffffffffffffffffffffff021916908373ffffffffffffffffffffffffffffffffffffffff1602179055503373ffffffffffffffffffffffffffffffffffffffff168173ffffffffffffffffffffffffffffffffffffffff167f8be0079c531659141344cd1fd0a4f28419497f9722a3daafe3b4186f6b6457e060405160405180910390a350565b60008060009054906101000a900473ffffffffffffffffffffffffffffffffffffffff16905090565b6109a9610978565b73ffffffffffffffffffffffffffffffffffffffff163373ffffffffffffffffffffffffffffffffffffffff1614158015610a325750600260009054906101000a900473ffffffffffffffffffffffffffffffffffffffff1673ffffffffffffffffffffffffffffffffffffffff163373ffffffffffffffffffffffffffffffffffffffff1614155b15610aa15733610a40610978565b600260009054906101000a900473ffffffffffffffffffffffffffffffffffffffff166040517f061db9c1000000000000000000000000000000000000000000000000000000008152600401610a9893929190611a4d565b60405180910390fd5b600073ffffffffffffffffffffffffffffffffffffffff168173ffffffffffffffffffffffffffffffffffffffff1603610b07576040517fd92e233d00000000000000000000000000000000000000000000000000000000815260040160405180910390fd5b80600260006101000a81548173ffffffffffffffffffffffffffffffffffffffff021916908373ffffffffffffffffffffffffffffffffffffffff1602179055507fd1a6a14209a385a964d036e404cb5cfb71f4000cdb03c9366292430787261be681604051610b779190611657565b60405180910390a150565b600260009054906101000a900473ffffffffffffffffffffffffffffffffffffffff1681565b600060038281548110610bbe57610bbd611a84565b5b9060005260206000200160009054906101000a900473ffffffffffffffffffffffffffffffffffffffff169050919050565b610bf8610ef1565b610c0181610f81565b50565b600060038054905083836000818110610c2057610c1f611a84565b5b90506020020135610c319190611ae2565b9050600060038281548110610c4957610c48611a84565b5b9060005260206000200160009054906101000a900473ffffffffffffffffffffffffffffffffffffffff16905080600560006101000a81548173ffffffffffffffffffffffffffffffffffffffff021916908373ffffffffffffffffffffffffffffffffffffffff1602179055506000600560146101000a81548160ff02191690836001811115610cdd57610cdc611188565b5b0217905550600067ffffffffffffffff811115610cfd57610cfc6113d8565b5b604051908082528060200260200182016040528015610d2b5781602001602082028036833780820191505090505b5060039080519060200190610d419291906110ad565b5042600481905550600560009054906101000a900473ffffffffffffffffffffffffffffffffffffffff1673ffffffffffffffffffffffffffffffffffffffff167f5b690ec4a06fe979403046eaeea5b3ce38524683c3001f662c8b5a829632f7df60405160405180910390a260008173ffffffffffffffffffffffffffffffffffffffff1647604051610dd490611b44565b60006040518083038185875af1925050503d8060008114610e11576040519150601f19603f3d011682016040523d82523d6000602084013e610e16565b606091505b5050905080610e51576040517fa1d04b3900000000000000000000000000000000000000000000000000000000815260040160405180910390fd5b505050505050565b60607f92fd13387c7fe7befbc38d303d6468778fb9731bc4583f17d92989c6fcfdeaaa82604051602401610e8d9190611b84565b604051602081830303815290604052907bffffffffffffffffffffffffffffffffffffffffffffffffffffffff19166020820180517bffffffffffffffffffffffffffffffffffffffffffffffffffffffff83818316178352505050509050919050565b60008054906101000a900473ffffffffffffffffffffffffffffffffffffffff1673ffffffffffffffffffffffffffffffffffffffff163373ffffffffffffffffffffffffffffffffffffffff1614610f7f576040517f08c379a0000000000000000000000000000000000000000000000000000000008152600401610f7690611beb565b60405180910390fd5b565b3373ffffffffffffffffffffffffffffffffffffffff168173ffffffffffffffffffffffffffffffffffffffff1603610fef576040517f08c379a0000000000000000000000000000000000000000000000000000000008152600401610fe690611c57565b60405180910390fd5b80600160006101000a81548173ffffffffffffffffffffffffffffffffffffffff021916908373ffffffffffffffffffffffffffffffffffffffff1602179055508073ffffffffffffffffffffffffffffffffffffffff1660008054906101000a900473ffffffffffffffffffffffffffffffffffffffff1673ffffffffffffffffffffffffffffffffffffffff167fed8889f560326eb138920d842192f0eb3dd22b4f139c87a2c57538e05bae127860405160405180910390a350565b828054828255906000526020600020908101928215611126579160200282015b828111156111255782518260006101000a81548173ffffffffffffffffffffffffffffffffffffffff021916908373ffffffffffffffffffffffffffffffffffffffff160217905550916020019190600101906110cd565b5b5090506111339190611137565b5090565b5b80821115611150576000816000905550600101611138565b5090565b6000819050919050565b61116781611154565b82525050565b6000602082019050611182600083018461115e565b92915050565b7f4e487b7100000000000000000000000000000000000000000000000000000000600052602160045260246000fd5b600281106111c8576111c7611188565b5b50565b60008190506111d9826111b7565b919050565b60006111e9826111cb565b9050919050565b6111f9816111de565b82525050565b600060208201905061121460008301846111f0565b92915050565b6000604051905090565b600080fd5b600080fd5b61123781611154565b811461124257600080fd5b50565b6000813590506112548161122e565b92915050565b600080fd5b600080fd5b600080fd5b60008083601f84011261127f5761127e61125a565b5b8235905067ffffffffffffffff81111561129c5761129b61125f565b5b6020830191508360208202830111156112b8576112b7611264565b5b9250929050565b6000806000604084860312156112d8576112d7611224565b5b60006112e686828701611245565b935050602084013567ffffffffffffffff81111561130757611306611229565b5b61131386828701611269565b92509250509250925092565b60008083601f8401126113355761133461125a565b5b8235905067ffffffffffffffff8111156113525761135161125f565b5b60208301915083600182028301111561136e5761136d611264565b5b9250929050565b6000806020838503121561138c5761138b611224565b5b600083013567ffffffffffffffff8111156113aa576113a9611229565b5b6113b68582860161131f565b92509250509250929050565b600080fd5b6000601f19601f8301169050919050565b7f4e487b7100000000000000000000000000000000000000000000000000000000600052604160045260246000fd5b611410826113c7565b810181811067ffffffffffffffff8211171561142f5761142e6113d8565b5b80604052505050565b600061144261121a565b905061144e8282611407565b919050565b600067ffffffffffffffff82111561146e5761146d6113d8565b5b611477826113c7565b9050602081019050919050565b82818337600083830152505050565b60006114a66114a184611453565b611438565b9050828152602081018484840111156114c2576114c16113c2565b5b6114cd848285611484565b509392505050565b600082601f8301126114ea576114e961125a565b5b81356114fa848260208601611493565b91505092915050565b60006020828403121561151957611518611224565b5b600082013567ffffffffffffffff81111561153757611536611229565b5b611543848285016114d5565b91505092915050565b60008115159050919050565b6115618161154c565b82525050565b600081519050919050565b600082825260208201905092915050565b60005b838110156115a1578082015181840152602081019050611586565b60008484015250505050565b60006115b882611567565b6115c28185611572565b93506115d2818560208601611583565b6115db816113c7565b840191505092915050565b60006040820190506115fb6000830185611558565b818103602083015261160d81846115ad565b90509392505050565b600073ffffffffffffffffffffffffffffffffffffffff82169050919050565b600061164182611616565b9050919050565b61165181611636565b82525050565b600060208201905061166c6000830184611648565b92915050565b61167b81611636565b811461168657600080fd5b50565b60008135905061169881611672565b92915050565b6000602082840312156116b4576116b3611224565b5b60006116c284828501611689565b91505092915050565b6000819050919050565b60006116f06116eb6116e684611616565b6116cb565b611616565b9050919050565b6000611702826116d5565b9050919050565b6000611714826116f7565b9050919050565b61172481611709565b82525050565b600060208201905061173f600083018461171b565b92915050565b60006020828403121561175b5761175a611224565b5b600061176984828501611245565b91505092915050565b60006040820190506117876000830185611648565b6117946020830184611648565b9392505050565b60006060820190506117b0600083018661115e565b6117bd602083018561115e565b6117ca604083018461115e565b949350505050565b6000819050919050565b6117e5816117d2565b82525050565b6117f481611154565b82525050565b600061ffff82169050919050565b611811816117fa565b82525050565b600063ffffffff82169050919050565b61183081611817565b82525050565b600082825260208201905092915050565b600061185282611567565b61185c8185611836565b935061186c818560208601611583565b611875816113c7565b840191505092915050565b600060c08301600083015161189860008601826117dc565b5060208301516118ab60208601826117eb565b5060408301516118be6040860182611808565b5060608301516118d16060860182611827565b5060808301516118e46080860182611827565b5060a083015184820360a08601526118fc8282611847565b9150508091505092915050565b600060208201905081810360008301526119238184611880565b905092915050565b60008151905061193a8161122e565b92915050565b60006020828403121561195657611955611224565b5b60006119648482850161192b565b91505092915050565b7f4e487b7100000000000000000000000000000000000000000000000000000000600052601160045260246000fd5b60006119a782611154565b91506119b283611154565b92508282039050818111156119ca576119c961196d565b5b92915050565b600082825260208201905092915050565b7f4d7573742062652070726f706f736564206f776e657200000000000000000000600082015250565b6000611a176016836119d0565b9150611a22826119e1565b602082019050919050565b60006020820190508181036000830152611a4681611a0a565b9050919050565b6000606082019050611a626000830186611648565b611a6f6020830185611648565b611a7c6040830184611648565b949350505050565b7f4e487b7100000000000000000000000000000000000000000000000000000000600052603260045260246000fd5b7f4e487b7100000000000000000000000000000000000000000000000000000000600052601260045260246000fd5b6000611aed82611154565b9150611af883611154565b925082611b0857611b07611ab3565b5b828206905092915050565b600081905092915050565b50565b6000611b2e600083611b13565b9150611b3982611b1e565b600082019050919050565b6000611b4f82611b21565b9150819050919050565b611b628161154c565b82525050565b602082016000820151611b7e6000850182611b59565b50505050565b6000602082019050611b996000830184611b68565b92915050565b7f4f6e6c792063616c6c61626c65206279206f776e657200000000000000000000600082015250565b6000611bd56016836119d0565b9150611be082611b9f565b602082019050919050565b60006020820190508181036000830152611c0481611bc8565b9050919050565b7f43616e6e6f74207472616e7366657220746f2073656c66000000000000000000600082015250565b6000611c416017836119d0565b9150611c4c82611c0b565b602082019050919050565b60006020820190508181036000830152611c7081611c34565b905091905056fea26469706673582212204e68e5f241df8dcd5da1f9014f5cb5c932094715d051e2152d8a710e0cde6fc664736f6c63430008130033","linkReferences":{}},"methodIdentifiers":{"acceptOwnership()":"79ba5097","checkUpkeep(bytes)":"6e04ff0d","enterRaffle()":"2cfcc539","getEntranceFee()":"09bc33a7","getPlayer(uint256)":"e55ae4e8","getRaffleState()":"115cbaf5","owner()":"8da5cb5b","performUpkeep(bytes)":"4585e33b","rawFulfillRandomWords(uint256,uint256[])":"1fe543e3","s_vrfCoordinator()":"9eccacf6","setCoordinator(address)":"8ea98117","transferOwnership(address)":"f2fde38b"},"id":44}